{
    "contractName": "VotingSystem",
    "abi": [
        {
            "inputs": [],
            "stateMutability": "nonpayable",
            "type": "constructor"
        },
        {
            "anonymous": false,
            "inputs": [
                {
                    "indexed": false,
                    "internalType": "string",
                    "name": "name",
                    "type": "string"
                }
            ],
            "name": "CandidateAdded",
            "type": "event"
        },
        {
            "anonymous": false,
            "inputs": [
                {
                    "indexed": false,
                    "internalType": "address",
                    "name": "voter",
                    "type": "address"
                },
                {
                    "indexed": false,
                    "internalType": "uint256",
                    "name": "candidateId",
                    "type": "uint256"
                }
            ],
            "name": "Voted",
            "type": "event"
        },
        {
            "anonymous": false,
            "inputs": [
                {
                    "indexed": false,
                    "internalType": "uint256",
                    "name": "winningCandidateId",
                    "type": "uint256"
                }
            ],
            "name": "VotingEnded",
            "type": "event"
        },
        {
            "anonymous": false,
            "inputs": [
                {
                    "indexed": false,
                    "internalType": "uint256",
                    "name": "startTime",
                    "type": "uint256"
                },
                {
                    "indexed": false,
                    "internalType": "uint256",
                    "name": "endTime",
                    "type": "uint256"
                }
            ],
            "name": "VotingStarted",
            "type": "event"
        },
        {
            "inputs": [],
            "name": "admin",
            "outputs": [
                {
                    "internalType": "address",
                    "name": "",
                    "type": "address"
                }
            ],
            "stateMutability": "view",
            "type": "function",
            "constant": true
        },
        {
            "inputs": [
                {
                    "internalType": "uint256",
                    "name": "",
                    "type": "uint256"
                }
            ],
            "name": "candidates",
            "outputs": [
                {
                    "internalType": "string",
                    "name": "name",
                    "type": "string"
                },
                {
                    "internalType": "uint256",
                    "name": "voteCount",
                    "type": "uint256"
                }
            ],
            "stateMutability": "view",
            "type": "function",
            "constant": true
        },
        {
            "inputs": [
                {
                    "internalType": "address",
                    "name": "",
                    "type": "address"
                }
            ],
            "name": "voters",
            "outputs": [
                {
                    "internalType": "bool",
                    "name": "hasVoted",
                    "type": "bool"
                },
                {
                    "internalType": "uint256",
                    "name": "vote",
                    "type": "uint256"
                }
            ],
            "stateMutability": "view",
            "type": "function",
            "constant": true
        },
        {
            "inputs": [],
            "name": "votingEnd",
            "outputs": [
                {
                    "internalType": "uint256",
                    "name": "",
                    "type": "uint256"
                }
            ],
            "stateMutability": "view",
            "type": "function",
            "constant": true
        },
        {
            "inputs": [],
            "name": "votingStart",
            "outputs": [
                {
                    "internalType": "uint256",
                    "name": "",
                    "type": "uint256"
                }
            ],
            "stateMutability": "view",
            "type": "function",
            "constant": true
        },
        {
            "inputs": [
                {
                    "internalType": "string",
                    "name": "_name",
                    "type": "string"
                }
            ],
            "name": "addCandidate",
            "outputs": [],
            "stateMutability": "nonpayable",
            "type": "function"
        },
        {
            "inputs": [
                {
                    "internalType": "uint256",
                    "name": "_durationInMinutes",
                    "type": "uint256"
                }
            ],
            "name": "startVoting",
            "outputs": [],
            "stateMutability": "nonpayable",
            "type": "function"
        },
        {
            "inputs": [
                {
                    "internalType": "uint256",
                    "name": "_candidateId",
                    "type": "uint256"
                }
            ],
            "name": "vote",
            "outputs": [],
            "stateMutability": "nonpayable",
            "type": "function"
        },
        {
            "inputs": [],
            "name": "endVoting",
            "outputs": [],
            "stateMutability": "nonpayable",
            "type": "function"
        },
        {
            "inputs": [],
            "name": "getWinningCandidate",
            "outputs": [
                {
                    "internalType": "uint256",
                    "name": "winningCandidateId",
                    "type": "uint256"
                }
            ],
            "stateMutability": "view",
            "type": "function",
            "constant": true
        },
        {
            "inputs": [],
            "name": "getCandidateCount",
            "outputs": [
                {
                    "internalType": "uint256",
                    "name": "",
                    "type": "uint256"
                }
            ],
            "stateMutability": "view",
            "type": "function",
            "constant": true
        },
        {
            "inputs": [
                {
                    "internalType": "address",
                    "name": "_voter",
                    "type": "address"
                }
            ],
            "name": "getVoterInfo",
            "outputs": [
                {
                    "internalType": "bool",
                    "name": "hasVoted",
                    "type": "bool"
                },
                {
                    "internalType": "uint256",
                    "name": "vote",
                    "type": "uint256"
                }
            ],
            "stateMutability": "view",
            "type": "function",
            "constant": true
        }
    ],
    "bytecode": "0x608060405234801561001057600080fd5b50336000806101000a81548173ffffffffffffffffffffffffffffffffffffffff021916908373ffffffffffffffffffffffffffffffffffffffff1602179055506115d3806100606000396000f3fe608060405234801561001057600080fd5b50600436106100b45760003560e01c806385a386351161007157806385a386351461017a5780639ed1f25514610198578063a3ec138d146101c9578063c3403ddf146101fa578063f851a44014610204578063f927cc2914610222576100b4565b80630121b93f146100b9578063101158af146100d557806330a56347146100f35780633477ee2e146101115780633d2f5bda14610142578063462e91ec1461015e575b600080fd5b6100d360048036038101906100ce9190610d3b565b610240565b005b6100dd6104a7565b6040516100ea919061125b565b60405180910390f35b6100fb6104ad565b604051610108919061125b565b60405180910390f35b61012b60048036038101906101269190610d3b565b6104ba565b60405161013992919061110b565b60405180910390f35b61015c60048036038101906101579190610d3b565b610576565b005b61017860048036038101906101739190610cfa565b6106f8565b005b61018261086f565b60405161018f919061125b565b60405180910390f35b6101b260048036038101906101ad9190610cd1565b610875565b6040516101c09291906110c0565b60405180910390f35b6101e360048036038101906101de9190610cd1565b610914565b6040516101f19291906110c0565b60405180910390f35b610202610945565b005b61020c610aa4565b604051610219919061107c565b60405180910390f35b61022a610ac8565b604051610237919061125b565b60405180910390f35b6003544210158015610253575060045442105b610292576040517f08c379a00000000000000000000000000000000000000000000000000000000081526004016102899061115b565b60405180910390fd5b600160003373ffffffffffffffffffffffffffffffffffffffff1673ffffffffffffffffffffffffffffffffffffffff16815260200190815260200160002060000160009054906101000a900460ff1615610322576040517f08c379a00000000000000000000000000000000000000000000000000000000081526004016103199061123b565b60405180910390fd5b6002805490508110610369576040517f08c379a00000000000000000000000000000000000000000000000000000000081526004016103609061121b565b60405180910390fd5b60018060003373ffffffffffffffffffffffffffffffffffffffff1673ffffffffffffffffffffffffffffffffffffffff16815260200190815260200160002060000160006101000a81548160ff02191690831515021790555080600160003373ffffffffffffffffffffffffffffffffffffffff1673ffffffffffffffffffffffffffffffffffffffff1681526020019081526020016000206001018190555060028181548110610444577f4e487b7100000000000000000000000000000000000000000000000000000000600052603260045260246000fd5b9060005260206000209060020201600101600081548092919061046690611488565b91905055507f4d99b957a2bc29a30ebd96a7be8e68fe50a3c701db28a91436490b7d53870ca4338260405161049c929190611097565b60405180910390a150565b60035481565b6000600280549050905090565b600281815481106104ca57600080fd5b90600052602060002090600202016000915090508060000180546104ed90611456565b80601f016020809104026020016040519081016040528092919081815260200182805461051990611456565b80156105665780601f1061053b57610100808354040283529160200191610566565b820191906000526020600020905b81548152906001019060200180831161054957829003601f168201915b5050505050908060010154905082565b60008054906101000a900473ffffffffffffffffffffffffffffffffffffffff1673ffffffffffffffffffffffffffffffffffffffff163373ffffffffffffffffffffffffffffffffffffffff1614610604576040517f08c379a00000000000000000000000000000000000000000000000000000000081526004016105fb906111db565b60405180910390fd5b600060035414610649576040517f08c379a00000000000000000000000000000000000000000000000000000000081526004016106409061119b565b60405180910390fd5b600160028054905011610691576040517f08c379a00000000000000000000000000000000000000000000000000000000081526004016106889061117b565b60405180910390fd5b42600381905550603c816106a59190611372565b6003546106b2919061131c565b6004819055507ff8c022056754dbacca05aff710dc315a2fa7699ae9309fda403cd1e55c11d40f6003546004546040516106ed929190611276565b60405180910390a150565b60008054906101000a900473ffffffffffffffffffffffffffffffffffffffff1673ffffffffffffffffffffffffffffffffffffffff163373ffffffffffffffffffffffffffffffffffffffff1614610786576040517f08c379a000000000000000000000000000000000000000000000000000000000815260040161077d906111db565b60405180910390fd5b6000600354146107cb576040517f08c379a00000000000000000000000000000000000000000000000000000000081526004016107c2906111bb565b60405180910390fd5b60026040518060400160405280838152602001600081525090806001815401808255809150506001900390600052602060002090600202016000909190919091506000820151816000019080519060200190610828929190610b9c565b506020820151816001015550507ff29562dad1599aea0ebb142466120aab326d5efa8f839df82a9c064bf78e89388160405161086491906110e9565b60405180910390a150565b60045481565b600080600160008473ffffffffffffffffffffffffffffffffffffffff1673ffffffffffffffffffffffffffffffffffffffff16815260200190815260200160002060000160009054906101000a900460ff16600160008573ffffffffffffffffffffffffffffffffffffffff1673ffffffffffffffffffffffffffffffffffffffff1681526020019081526020016000206001015491509150915091565b60016020528060005260406000206000915090508060000160009054906101000a900460ff16908060010154905082565b60008054906101000a900473ffffffffffffffffffffffffffffffffffffffff1673ffffffffffffffffffffffffffffffffffffffff163373ffffffffffffffffffffffffffffffffffffffff16146109d3576040517f08c379a00000000000000000000000000000000000000000000000000000000081526004016109ca906111db565b60405180910390fd5b600454421015610a18576040517f08c379a0000000000000000000000000000000000000000000000000000000008152600401610a0f906111fb565b60405180910390fd5b60006004541415610a5e576040517f08c379a0000000000000000000000000000000000000000000000000000000008152600401610a559061113b565b60405180910390fd5b6000610a68610ac8565b90507f81eb7415440ff8e6c8e92606fd3b0e5e6a5c99ea90cdb63b41aec54e897312b381604051610a99919061125b565b60405180910390a150565b60008054906101000a900473ffffffffffffffffffffffffffffffffffffffff1681565b6000806000905060005b600280549050811015610b97578160028281548110610b1a577f4e487b7100000000000000000000000000000000000000000000000000000000600052603260045260246000fd5b9060005260206000209060020201600101541115610b845760028181548110610b6c577f4e487b7100000000000000000000000000000000000000000000000000000000600052603260045260246000fd5b90600052602060002090600202016001015491508092505b8080610b8f90611488565b915050610ad2565b505090565b828054610ba890611456565b90600052602060002090601f016020900481019282610bca5760008555610c11565b82601f10610be357805160ff1916838001178555610c11565b82800160010185558215610c11579182015b82811115610c10578251825591602001919060010190610bf5565b5b509050610c1e9190610c22565b5090565b5b80821115610c3b576000816000905550600101610c23565b5090565b6000610c52610c4d846112d0565b61129f565b905082815260208101848484011115610c6a57600080fd5b610c75848285611414565b509392505050565b600081359050610c8c8161156f565b92915050565b600082601f830112610ca357600080fd5b8135610cb3848260208601610c3f565b91505092915050565b600081359050610ccb81611586565b92915050565b600060208284031215610ce357600080fd5b6000610cf184828501610c7d565b91505092915050565b600060208284031215610d0c57600080fd5b600082013567ffffffffffffffff811115610d2657600080fd5b610d3284828501610c92565b91505092915050565b600060208284031215610d4d57600080fd5b6000610d5b84828501610cbc565b91505092915050565b610d6d816113cc565b82525050565b610d7c816113de565b82525050565b6000610d8d82611300565b610d97818561130b565b9350610da7818560208601611423565b610db08161155e565b840191505092915050565b6000610dc860168361130b565b91507f566f74696e6720686173206e6f742073746172746564000000000000000000006000830152602082019050919050565b6000610e0860128361130b565b91507f566f74696e67206973206e6f74206f70656e00000000000000000000000000006000830152602082019050919050565b6000610e48602c8361130b565b91507f4e656564206174206c656173742074776f2063616e6469646174657320746f2060008301527f737461727420766f74696e6700000000000000000000000000000000000000006020830152604082019050919050565b6000610eae601a8361130b565b91507f566f74696e672068617320616c726561647920737461727465640000000000006000830152602082019050919050565b6000610eee602e8361130b565b91507f43616e6e6f74206164642063616e6469646174657320616674657220766f746960008301527f6e672068617320737461727465640000000000000000000000000000000000006020830152604082019050919050565b6000610f5460228361130b565b91507f4f6e6c792061646d696e2063616e20706572666f726d2074686973206163746960008301527f6f6e0000000000000000000000000000000000000000000000000000000000006020830152604082019050919050565b6000610fba601f8361130b565b91507f566f74696e6720706572696f6420686173206e6f7420656e64656420796574006000830152602082019050919050565b6000610ffa60148361130b565b91507f496e76616c69642063616e6469646174652049440000000000000000000000006000830152602082019050919050565b600061103a60168361130b565b91507f596f75206861766520616c726561647920766f746564000000000000000000006000830152602082019050919050565b6110768161140a565b82525050565b60006020820190506110916000830184610d64565b92915050565b60006040820190506110ac6000830185610d64565b6110b9602083018461106d565b9392505050565b60006040820190506110d56000830185610d73565b6110e2602083018461106d565b9392505050565b600060208201905081810360008301526111038184610d82565b905092915050565b600060408201905081810360008301526111258185610d82565b9050611134602083018461106d565b9392505050565b6000602082019050818103600083015261115481610dbb565b9050919050565b6000602082019050818103600083015261117481610dfb565b9050919050565b6000602082019050818103600083015261119481610e3b565b9050919050565b600060208201905081810360008301526111b481610ea1565b9050919050565b600060208201905081810360008301526111d481610ee1565b9050919050565b600060208201905081810360008301526111f481610f47565b9050919050565b6000602082019050818103600083015261121481610fad565b9050919050565b6000602082019050818103600083015261123481610fed565b9050919050565b600060208201905081810360008301526112548161102d565b9050919050565b6000602082019050611270600083018461106d565b92915050565b600060408201905061128b600083018561106d565b611298602083018461106d565b9392505050565b6000604051905081810181811067ffffffffffffffff821117156112c6576112c561152f565b5b8060405250919050565b600067ffffffffffffffff8211156112eb576112ea61152f565b5b601f19601f8301169050602081019050919050565b600081519050919050565b600082825260208201905092915050565b60006113278261140a565b91506113328361140a565b9250827fffffffffffffffffffffffffffffffffffffffffffffffffffffffffffffffff03821115611367576113666114d1565b5b828201905092915050565b600061137d8261140a565b91506113888361140a565b9250817fffffffffffffffffffffffffffffffffffffffffffffffffffffffffffffffff04831182151516156113c1576113c06114d1565b5b828202905092915050565b60006113d7826113ea565b9050919050565b60008115159050919050565b600073ffffffffffffffffffffffffffffffffffffffff82169050919050565b6000819050919050565b82818337600083830152505050565b60005b83811015611441578082015181840152602081019050611426565b83811115611450576000848401525b50505050565b6000600282049050600182168061146e57607f821691505b6020821081141561148257611481611500565b5b50919050565b60006114938261140a565b91507fffffffffffffffffffffffffffffffffffffffffffffffffffffffffffffffff8214156114c6576114c56114d1565b5b600182019050919050565b7f4e487b7100000000000000000000000000000000000000000000000000000000600052601160045260246000fd5b7f4e487b7100000000000000000000000000000000000000000000000000000000600052602260045260246000fd5b7f4e487b7100000000000000000000000000000000000000000000000000000000600052604160045260246000fd5b6000601f19601f8301169050919050565b611578816113cc565b811461158357600080fd5b50565b61158f8161140a565b811461159a57600080fd5b5056fea2646970667358221220b5193692f94c0977fae0a5ece67ef95d5d0221435c551e0cf0983075b9f8055364736f6c63430008000033",
    "immutableReferences": {},
    "source": "// SPDX-License-Identifier: MIT\r\npragma solidity ^0.8.0;\r\n\r\ncontract VotingSystem {\r\n    struct Candidate {\r\n        string name;\r\n        uint256 voteCount;\r\n    }\r\n\r\n    struct Voter {\r\n        bool hasVoted;\r\n        uint256 vote;\r\n    }\r\n\r\n    address public admin;\r\n    mapping(address => Voter) public voters;\r\n    Candidate[] public candidates;\r\n    uint256 public votingStart;\r\n    uint256 public votingEnd;\r\n\r\n    event CandidateAdded(string name);\r\n    event Voted(address voter, uint256 candidateId);\r\n    event VotingStarted(uint256 startTime, uint256 endTime);\r\n    event VotingEnded(uint256 winningCandidateId);\r\n\r\n    modifier onlyAdmin() {\r\n        require(msg.sender == admin, \"Only admin can perform this action\");\r\n        _;\r\n    }\r\n\r\n    modifier votingOpen() {\r\n        require(block.timestamp >= votingStart && block.timestamp < votingEnd, \"Voting is not open\");\r\n        _;\r\n    }\r\n\r\n    constructor() {\r\n        admin = msg.sender;\r\n    }\r\n\r\n    function addCandidate(string memory _name) public onlyAdmin {\r\n        require(votingStart == 0, \"Cannot add candidates after voting has started\");\r\n        candidates.push(Candidate({\r\n            name: _name,\r\n            voteCount: 0\r\n        }));\r\n        emit CandidateAdded(_name);\r\n    }\r\n\r\n    function startVoting(uint256 _durationInMinutes) public onlyAdmin {\r\n        require(votingStart == 0, \"Voting has already started\");\r\n        require(candidates.length > 1, \"Need at least two candidates to start voting\");\r\n        votingStart = block.timestamp;\r\n        votingEnd = votingStart + (_durationInMinutes * 1 minutes);\r\n        emit VotingStarted(votingStart, votingEnd);\r\n    }\r\n\r\n    function vote(uint256 _candidateId) public votingOpen {\r\n        require(!voters[msg.sender].hasVoted, \"You have already voted\");\r\n        require(_candidateId < candidates.length, \"Invalid candidate ID\");\r\n\r\n        voters[msg.sender].hasVoted = true;\r\n        voters[msg.sender].vote = _candidateId;\r\n        candidates[_candidateId].voteCount++;\r\n\r\n        emit Voted(msg.sender, _candidateId);\r\n    }\r\n\r\n    function endVoting() public onlyAdmin {\r\n        require(block.timestamp >= votingEnd, \"Voting period has not ended yet\");\r\n        require(votingEnd != 0, \"Voting has not started\");\r\n\r\n        uint256 winningCandidateId = getWinningCandidate();\r\n        emit VotingEnded(winningCandidateId);\r\n    }\r\n\r\n    function getWinningCandidate() public view returns (uint256 winningCandidateId) {\r\n        uint256 winningVoteCount = 0;\r\n        for (uint256 i = 0; i < candidates.length; i++) {\r\n            if (candidates[i].voteCount > winningVoteCount) {\r\n                winningVoteCount = candidates[i].voteCount;\r\n                winningCandidateId = i;\r\n            }\r\n        }\r\n    }\r\n\r\n    function getCandidateCount() public view returns (uint256) {\r\n        return candidates.length;\r\n    }\r\n\r\n    function getVoterInfo(address _voter) public view returns (bool hasVoted, uint256 vote) {\r\n        return (voters[_voter].hasVoted, voters[_voter].vote);\r\n    }\r\n}",
    "sourcePath": "C:\\Users\\daksh\\Desktop\\voting-system\\voting-system-backend\\contracts\\VotingSystem.sol",
    "compiler": {
        "name": "solc",
        "version": "0.8.0+commit.c7dfd78e.Emscripten.clang"
    },
    "schemaVersion": "3.4.16",
    "updatedAt": "2024-09-08T01:48:56.932Z",
    "networkType": "ethereum",
    "devdoc": {
        "kind": "dev",
        "methods": {},
        "version": 1
    },
    "userdoc": {
        "kind": "user",
        "methods": {},
        "version": 1
    }
}